{
  "contractName": "Notary",
  "abi": [
    {
      "inputs": [],
      "payable": false,
      "stateMutability": "nonpayable",
      "type": "constructor"
    },
    {
      "constant": false,
      "inputs": [
        {
          "internalType": "bytes32",
          "name": "hash",
          "type": "bytes32"
        }
      ],
      "name": "addDocHash",
      "outputs": [],
      "payable": false,
      "stateMutability": "nonpayable",
      "type": "function"
    },
    {
      "constant": true,
      "inputs": [
        {
          "internalType": "bytes32",
          "name": "hash",
          "type": "bytes32"
        }
      ],
      "name": "findDocHash",
      "outputs": [
        {
          "internalType": "uint256",
          "name": "",
          "type": "uint256"
        },
        {
          "internalType": "uint256",
          "name": "",
          "type": "uint256"
        }
      ],
      "payable": false,
      "stateMutability": "view",
      "type": "function"
    }
  ],
  "bytecode": "0x608060405234801561001057600080fd5b50610186806100206000396000f3fe608060405234801561001057600080fd5b50600436106100365760003560e01c8063133a48f31461003b5780634cf00d3f14610069575b600080fd5b6100676004803603602081101561005157600080fd5b81019080803590602001909291905050506100b2565b005b6100956004803603602081101561007f57600080fd5b81019080803590602001909291905050506100ff565b604051808381526020018281526020019250505060405180910390f35b6100ba610137565b60405180604001604052804281526020014381525090508060008084815260200190815260200160002060008201518160000155602082015181600101559050505050565b600080600080848152602001908152602001600020600001546000808581526020019081526020016000206001015491509150915091565b60405180604001604052806000815260200160008152509056fea265627a7a72315820cbc2edf78cc755468061136d916ac5cbd660bd4b08922381b9e98bc0770a4d3364736f6c63430005100032",
  "source": "pragma solidity ^0.5.16;\r\n\r\ncontract Notary {\r\n    struct Record {\r\n        uint mineTime;\r\n        uint blockNumber;\r\n    }\r\n\r\n    mapping (bytes32 => Record) private docHashes;\r\n\r\n     constructor() public {\r\n        // constructor\r\n    }\r\n\r\n    function addDocHash (bytes32 hash) public {\r\n        Record memory newRecord = Record(now, block.number);\r\n        docHashes[hash] = newRecord;\r\n    }\r\n\r\n    function findDocHash (bytes32 hash) public view returns(uint, uint) {\r\n        return (docHashes[hash].mineTime, docHashes[hash].blockNumber);\r\n    }\r\n}\r\n",
  "sourcePath": "C:/Users/jangr/Documents/truffle1/contracts/Notary.sol",
  "compiler": {
    "name": "solc",
    "version": "0.5.16+commit.9c3226ce.Emscripten.clang"
  },
  "schemaVersion": "3.3.3",
  "updatedAt": "2021-04-19T14:20:27.098Z",
  "networkType": "ethereum",
  "devdoc": {
    "methods": {}
  },
  "userdoc": {
    "methods": {}
  }
}